:100000000C9486000C94B0000C94B0000C94B000DA
:100010000C94B0000C94B0000C94B0000C94B000A0
:100020000C94B0000C94B0000C94B0000C94B00090
:100030000C94B0000C94E5030C94B0000C94B00048
:100040000C94B0000C94B0000C9466030C94B000B7
:100050000C9430030C9406030C94B0000C94B00084
:100060000C94B0000C94B0000C94B0000C94B00050
:100070000C94B0000C94B0000C94B0000C94B00040
:100080000C94B0030C94B0000C94B000B102B40214
:10009000A702AB02CB02CB02B802BC02C202C6026C
:1000A00000002200250028002B00020202020202AA
:1000B000020204040404040404040303030303030A
:1000C00003030101010101010101010204081020E3
:1000D0004080010204081020408001020408102022
:1000E000408080402010080402010000000102004E
:1000F000090A0000000004030807000000000000D7
:10010000000000000000000000001A0411241FBEBF
:10011000CFEFD0E4DEBFCDBF22E0A2E4B1E001C06A
:100120001D92AA33B207E1F711E0A0E0B1E0E6E2E8
:10013000FEE000E00BBF02C007900D92A234B107B1
:10014000D9F710E0C6E8D0E004C02197FE010E9474
:100150000307C538D107C9F70E9459040C94110749
:100160000C940000CF92DF92EF92FF920F931F93B7
:10017000CF93DF936C017A018B01C0E0D0E0CE1504
:10018000DF0581F0D8016D918D01D601ED91FC91D3
:100190000190F081E02DC6010995892B11F021967F
:1001A000EECF7E01C701DF91CF911F910F91FF909C
:1001B000EF90DF90CF900895089580E090E008954B
:1001C000FC01538D448D252F30E0842F90E0821B5D
:1001D000930B541710F0CF96089501970895FC01E2
:1001E000918D828D981761F0828DDF01A80FB11D6E
:1001F0005D968C91928D9F5F9F73928F90E0089592
:100200008FEF9FEF0895FC01918D828D981731F04B
:10021000828DE80FF11D858D90E008958FEF9FEF9F
:100220000895FC01918D228D892F90E0805C9F4F75
:10023000821B91098F739927089587E591E00E94A9
:10024000110121E0892B09F420E0822F0895FC019F
:10025000848DDF01A80FB11DA35ABF4F2C91848D4F
:1002600090E001968F739927848FA689B7892C9384
:10027000A089B1898C91837080648C93938D848DD7
:10028000981306C00288F389E02D80818F7D8083DA
:100290000895EF92FF920F931F93CF93DF93EC019A
:1002A00081E0888F9B8D8C8D981305C0E889F98932
:1002B000808185FD26C0F62E0B8D10E00F5F1F4F4D
:1002C0000F731127E02E8C8DE8120CC00FB607FCBF
:1002D000FACFE889F989808185FFF5CFCE010E94A8
:1002E0002701F1CF8B8DFE01E80FF11DE35AFF4F7F
:1002F000F0829FB7F8940B8FEA89FB898081806236
:100300000AC09FB7F894EE89FF896083E889F9896C
:1003100080818370806480839FBF81E090E0DF9163
:10032000CF911F910F91FF90EF900895CF93DF939E
:10033000EC01888D8823C9F0EA89FB89808185FDDD
:1003400005C0A889B9898C9186FD0FC00FB607FC3E
:10035000F5CF808185FFF2CFA889B9898C9185FF7F
:10036000EDCFCE010E942701E7CFDF91CF91089515
:1003700080E090E0892B21F00E941D0181110DC0C9
:1003800080E090E0892B71F080E090E0892B51F0C3
:100390000E940000811104C008950E940000F0CF67
:1003A0000C94000008953FB7F89480914D0190910E
:1003B0004E01A0914F01B091500126B5A89B05C0F8
:1003C0002F3F19F00196A11DB11D3FBFBA2FA92FD4
:1003D000982F8827820F911DA11DB11DBC01CD0151
:1003E00042E0660F771F881F991F4A95D1F708953D
:1003F0002FB7F8946091490170914A0180914B01A7
:1004000090914C012FBF0895009769F0FC01019075
:100410000020E9F73197AF01481B590BBC0187E574
:1004200091E00C94B20080E090E008958F929F924A
:10043000AF92BF920F931F93CF93DF93CDB7DEB7E9
:10044000A1970FB6F894DEBF0FBECDBF19A2423000
:1004500008F44AE08E010F5D1F4F842E912CA12CD1
:10046000B12CA50194010E94E106E62FB901CA0151
:1004700001501109EA3014F4E05D01C0E95CD801D3
:10048000EC93232B242B252B61F7C8010E94040237
:10049000A1960FB6F894DEBF0FBECDBFDF91CF910E
:1004A0001F910F91BF90AF909F908F9008950F93E1
:1004B0001F93CF93DF9300D000D0CDB7DEB787E591
:1004C00091E00E94EF0087E591E00E94EF0010E0CC
:1004D0008A3379F0E1E0F0E0EC0FFD1FE10FF11D50
:1004E00017FDFA9580831F5F87E591E00E94EF007A
:1004F000EFCFCE0101960E94BB068C0187E591E00B
:100500000E94EF009C01332720533109223031052E
:1005100008F059C0C8019927FC01E651FF4F4491EA
:10052000FC01E653FF4FA491FC01E655FF4F849177
:10053000882309F448C0442371F150E0FA0131974F
:10054000EA30F10540F5EA5BFF4F0C940307909108
:1005500080009F7703C0909180009F7D90938000E2
:100560001AC094B59F7702C094B59F7D94BD13C007
:100570009091B0009F7703C09091B0009F7D9093C1
:10058000B00009C0909190009F7703C090919000B7
:100590009F7D90939000E82FF0E0EE0FFF1FE05654
:1005A000FF4F859194913FB7F894FC01211104C04D
:1005B0002081A095A22302C02081A22BA0833FBF4F
:1005C00002C08D3031F087E591E00E94EF008A3063
:1005D000C1F787E591E00E9403018A3061F487E565
:1005E00091E00F900F900F900F90DF91CF911F919E
:1005F0000F910C94EF000F900F900F900F90DF91E0
:10060000CF911F910F9108950E940C071F920F9296
:100610000FB60F9211240BB60F922F933F934F9367
:100620005F936F937F938F939F93AF93BF93EF935A
:10063000FF9387E591E00E942701FF91EF91BF9121
:10064000AF919F918F917F916F915F914F913F916A
:100650002F910F900BBE0F900FBE0F901F9018950B
:100660001F920F920FB60F9211240BB60F922F9379
:100670008F939F93EF93FF93E0916701F09168014F
:100680008081E0916D01F0916E0182FD12C0908138
:10069000809170018F5F8F7320917101821751F0EB
:1006A000E0917001F0E0E95AFE4F958F8093700160
:1006B00001C08081FF91EF919F918F912F910F90B9
:1006C0000BBE0F900FBE0F901F9018951F920F92A8
:1006D0000FB60F9211242F933F938F939F93AF9355
:1006E000BF938091490190914A01A0914B01B09133
:1006F0004C013091480123E0230F2D3720F401965F
:10070000A11DB11D05C026E8230F0296A11DB11D34
:10071000209348018093490190934A01A0934B0193
:10072000B0934C0180914D0190914E01A0914F01E9
:10073000B09150010196A11DB11D80934D01909380
:100740004E01A0934F01B0935001BF91AF919F9183
:100750008F913F912F910F900FBE0F901F90189582
:100760001F920F920FB60F9211242F933F938F93E6
:100770009F9380914701811105C081E080934701DB
:10078000469A1AC01092470146988091450190916F
:1007900046010196909346018093450126B1287049
:1007A000803A9F4034F01092460110924501109219
:1007B00071002111109271009F918F913F912F91A3
:1007C0000F900FBE0F901F9018951F920F920FB6AB
:1007D0000F9211242F933F938F939F938091440105
:1007E000811105C081E0809344015F9A1AC0109284
:1007F00044015F988091420190914301019690934A
:1008000043018093420126B12470803A9F4034F026
:10081000109243011092420110926F002111109228
:100820006F009F918F913F912F910F900FBE0F906E
:100830001F901895E7E5F1E01382128288EE93E0AD
:10084000A0E0B0E084839583A683B78384E091E041
:100850009183808385EC90E09587848784EC90E099
:100860009787868780EC90E0918B808B81EC90E07D
:10087000938B828B82EC90E0958B848B86EC90E05E
:10088000978B868B118E128E138E148EE4EFF1E00F
:100890001682178210861186128613861486158694
:1008A00016861786108A118A128A138A148A158A64
:1008B0000895789484B5826084BD84B5816084BDD8
:1008C00085B5826085BD85B5816085BD80916E00EE
:1008D000816080936E00109281008091810082601F
:1008E000809381008091810081608093810080915C
:1008F00080008160809380008091B100846080934B
:10090000B1008091B00081608093B000809191002F
:10091000826080939100809191008160809391002A
:100920008091900081608093900080917A00846033
:1009300080937A0080917A00826080937A0080911F
:100940007A00816080937A0080917A008068809339
:100950007A001092C1001092360210923702109263
:100960003802109239021092F6011092F70110929B
:10097000F8011092F9010E94F8016B017C014B0112
:100980005C0128EB820E2BE0921EA11CB11C0E9480
:10099000F8016C157D058E059F0528F086169706D3
:1009A000A806B906A0F70E94D3014B015C0198EE9E
:1009B000C92E93E0D92EE12CF12C0E94D301DC0149
:1009C000CB0188199909AA09BB09883E9340A10562
:1009D000B10598F331E0C31AD108E108F10848EEF7
:1009E000840E43E0941EA11CB11CC114D104E10487
:1009F000F10419F7E0916701F091680182E08083CA
:100A0000E0916301F09164011082E0916501F09141
:100A1000660180E1808310926F01E0916B01F0919B
:100A20006C0186E08083E0916901F0916A01808128
:100A300080618083E0916901F0916A018081886022
:100A40008083E0916901F0916A01808180688083F0
:100A5000E0916901F0916A0180818F7D80830E941D
:100A6000F8016093F6017093F7018093F801909379
:100A7000F90182E191E00E9404020E94F8016B01F9
:100A80007C014B015C018AE0880E911CA11CB11C09
:100A90000E94F8016C157D058E059F0528F08616CD
:100AA0009706A806B906A0F781E080930A020E9483
:100AB000F8016093F6017093F7018093F801909329
:100AC000F90183E291E00E9404023D9A8AB1806CB0
:100AD0008AB93A9887B1806C87B93B9810928000A8
:100AE0002AE0209381001092820080E991E09093A7
:100AF00089008093880010926F00109290002093DC
:100B00009100109292009093990080939800109217
:100B1000710084EF882E99249394A12CB12CC2E00B
:100B2000D1E00E94F801672B682B692B39F40E94F1
:100B3000F801623071058105910568F10E94F801A4
:100B4000C0905301D0905401E0905501F0905601AF
:100B50006C157D058E059F0540F4609353017093DD
:100B600054018093550190935601C0905301D09049
:100B70005401E0905501F09056019B01AC012C19F5
:100B80003D094E095F0969017A013AEFC316D104A4
:100B9000E104F10428F5C0936F0080916F0081118A
:100BA000FCCF80915201811104C0D0935201459A2B
:100BB00003C0109252014598C0937100809171005A
:100BC0008111FCCF80915101811104C0D09351015A
:100BD000479A03C01092510147980E94B801A1CFD3
:100BE0006093530170935401809355019093560183
:100BF0008092020290920302A0920402B092050237
:100C00001092060210920702109208021092090236
:100C10008091FA019091FB01A091FC01B091FD013E
:100C20008093FE019093FF01A0930002B093010214
:100C30000E94F8016093FA017093FB018093FC011C
:100C40009093FD0187E591E00E940301843611F441
:100C50000E9457020E94F8016093F6017093F70119
:100C60008093F8019093F9010E94F8016B017C01D7
:100C70008AE291E00E9404024AE061E070E080E0D4
:100C800090E00E94160281E391E00E9404024AE093
:100C9000C701B6010E94160283E391E00E9404029C
:100CA0008091FA019091FB01A091FC01B091FD01AE
:100CB000A7019601281B390B4A0B5B0BCA01B9012E
:100CC0004AE00E94160283E391E00E9404028091B0
:100CD000FA019091FB01A091FC01B091FD01C0903F
:100CE000FE01D090FF01E0900002F0900102BC01F3
:100CF000CD016C197D098E099F094AE00E941602F8
:100D000085E391E00E9404020E94F8014AE00E94FB
:100D1000160287E391E00E9404028EE391E00E94B4
:100D200004020E94F8012B013C016B017C0135E0BB
:100D3000C30ED11CE11CF11C0E94F801641575055D
:100D40008605970528F0C616D706E806F906A0F727
:100D500087E591E00E940301843611F40E94570256
:100D60000E94F8016093FA017093FB018093FC01EB
:100D70009093FD0110CFFC0188279927E8942191D9
:100D80002032E9F3293010F02E30C8F32B3241F035
:100D90002D3239F4689404C00E94D906820F911D47
:100DA000219120532A30C0F31EF4909581959F4FD6
:100DB00008957AE0979F902D879F802D910D1124A3
:100DC0000895A1E21A2EAA1BBB1BFD010DC0AA1F8C
:100DD000BB1FEE1FFF1FA217B307E407F50720F0A4
:100DE000A21BB30BE40BF50B661F771F881F991F1F
:100DF0001A9469F760957095809590959B01AC0168
:100E0000BD01CF010895EE0FFF1F0024001C0BBE93
:100E10000790F691E02D099481E090E0F8940C940D
:060E20001107F894FFCF5A
:100E2600000000004901B200E00096011101EF0048
:100E36000301564D4450565F317C315F564D445048
:100E4600560A00564D4450525F00564D4450455F79
:100E5600003A323A007C005F564D445045000D0A78
:020E660000008A
:020000021000EC
:10FC00001F92CDB7DEB7112484B714BE81FFDED0BA
:10FC100085E08093810082E08093C00088E180933A
:10FC2000C10086E08093C20080E18093C4008EE032
:10FC3000B8D0209A26E080E39CEF31E090938500D5
:10FC40008093840036BBB09BFECF189AA8952150B4
:10FC5000A9F7A12CB12CEE24E39491E1D92E23E055
:10FC6000F22E93D0813469F490D08983A0D0898119
:10FC7000823809F424C0813809F476C083E07ED04C
:10FC80007AC0823411F484E103C0853419F485E02C
:10FC900096D071C0853579F478D0182F76D0212F81
:10FCA00030E0382B832F881F8827881F8BBF59018E
:10FCB000AA0CBB1C5FC0863521F484E080D080E0B4
:10FCC000DECF843609F03BC060D05FD0C82E5DD057
:10FCD000A11480EEB80618F4F501F7BEE89500E02F
:10FCE00011E053D0F80181938F01CE12FACFA11405
:10FCF000F0EEBF0618F0F501F7BEE89558D007B64C
:10FD000000FCFDCFF501A0E0B1E08C9111962C91A3
:10FD1000119790E0922B12960C01E7BEE895112402
:10FD20003296A11582E0B80781F785E0F50187BF1B
:10FD3000E89507B600FCFDCFD7BEE8951CC0843718
:10FD400061F423D022D0182F20D031D0F501879133
:10FD50005F0114D01150D1F70EC0853739F427D088
:10FD60008EE10CD087E90AD085E089CF813511F486
:10FD700088E017D01CD080E101D073CF9091C000F3
:10FD800095FFFCCF8093C60008958091C00087FF47
:10FD9000FCCF8091C00084FD01C0A8958091C60071
:10FDA0000895E0E6F0E098E1908380830895EDDF28
:10FDB000803219F088E0F5DFFFCF84E1DFCFCF9309
:10FDC000C82FE3DFC150E9F7CF91F1CF282E80E0B3
:08FDD000E8DFEE27FF2709948C
:02FFFE000005FC
:040000031000FC00ED
:00000001FF