:100000000C946C000C948B000C948B000C948B0063
:100010000C948B000C948B000C948B000C948B0034
:100020000C948B000C948B000C948B000C948B0024
:100030000C948B000C943C010C948B000C948B0062
:100040000C948B000C948B000C948D000C948B0002
:100050000C948B000C948B000C948B000C948B00F4
:100060000C948B000C948B000C948B000C948B00E4
:100070000C948B000C948B000C948B000C948B00D4
:100080000C94D7000C948B000C948B00084AD73B3F
:100090003BCE016E84BCBFFDC12F3D6C74319ABD57
:1000A00056833DDA3D00C77F11BED9E4BB4C3E917B
:1000B0006BAAAABE000000803F05A84CCDB2D44E6A
:1000C000B93836A9020C50B9918688083CA6AAAA6C
:1000D0002ABE000000803F0011241FBECFEFD0E4F5
:1000E000DEBFCDBF14E2A0E0B1E0E2E4FDE000E05D
:1000F0000BBF02C007900D92A839B107D9F724E2CF
:10010000A8E9B4E201C01D92A33BB207E1F70E9447
:10011000A1010C949F060C9400001F920F920FB641
:100120000F9211242F933F938F939F93AF93BF937D
:100130008091AF249091B024A091B124B091B224C9
:100140003091AE2423E0230F2D3720F40196A11D1A
:10015000B11D05C026E8230F0296A11DB11D2093F5
:10016000AE248093AF249093B024A093B124B09395
:10017000B2248091AA249091AB24A091AC24B09198
:10018000AD240196A11DB11D8093AA249093AB24A8
:10019000A093AC24B093AD24BF91AF919F918F9168
:1001A0003F912F910F900FBE0F901F9018951F92A7
:1001B0000F920FB60F9211242F933F934F935F939B
:1001C0008F939F9380919D24811105C081E080933E
:1001D0009D24469A46C010929D24469880919B2467
:1001E00090919C24019690939C2480939B2486B1AB
:1001F000887040919B2450919C242091A0243091A0
:10020000A1244217530744F01092000110929C243D
:1002100010929B2410927100882319F180910001A3
:100220008F3FF9F01092710010929C2410929B2441
:10023000809100018130A9F48FEF809300014798ED
:1002400080EA9FE09093A1248093A02410927100F3
:1002500080E991E0909399008093980082E08093E8
:1002600071009F918F915F914F913F912F910F90CE
:100270000FBE0F901F9018951F920F920FB60F92FE
:1002800011242F933F934F935F938F939F9380916C
:100290009A24811105C081E080939A245F9A46C018
:1002A00010929A245F9880919824909199240196B5
:1002B000909399248093982486B1847040919824D7
:1002C0005091992420919E2430919F2442175307E6
:1002D00044F01092010110929924109298241092E7
:1002E0006F00882319F1809101018F3FF9F010927E
:1002F0006F0010929924109298248091010181300E
:10030000A9F48FEF80930101459880EA9FE09093D4
:100310009F2480939E2410926F0080E991E0909337
:1003200089008093880082E080936F009F918F9175
:100330005F914F913F912F910F900FBE0F901F90A3
:100340001895CF93DF93CDB7DEB768970FB6F894C3
:10035000DEBF0FBECDBF789484B5826084BD84B506
:10036000816084BD85B5826085BD85B5816085BDB0
:1003700080916E00816080936E0010928100809168
:1003800081008260809381008091810081608093F0
:100390008100809180008160809380008091B10015
:1003A00084608093B1008091B00081608093B00040
:1003B0008091910082608093910080919100816092
:1003C0008093910080919000816080939000809153
:1003D0007A00846080937A0080917A0082608093B2
:1003E0007A0080917A00816080937A0080917A000F
:1003F000806880937A001092C1003D9A8AB1806C27
:100400008AB93A9887B1806C87B93B98109280007E
:100410002AE0209381001092820080E991E090937D
:1004200089008093880010926F00109290002093B2
:1004300091001092920090939900809398001092EE
:10044000710021E02093010120930001459A40E0D2
:100450005DE750939F2440939E2410926F009093E9
:1004600089008093880022E020936F00479A509380
:10047000A1244093A024109271009093990080933E
:10048000980020937100809101018111FCCF80912F
:1004900000018111F8CF1092A6241092A724109287
:1004A000A8241092A9241092A2241092A32410929E
:1004B000A4241092A5240AE71DE18AE79DE19A8B06
:1004C000898BA2E0B1E0B88FAF8BE989FA89A1905E
:1004D000B190FA8BE98BAF89B88D14968D919D916F
:1004E0000D90BC91A02D89839A83AB83BC83AF8987
:1004F000B88D8D919D910D90BC91A02D8D839E8383
:10050000AF83B8878091A6249091A724A091A824B6
:10051000B091A92489879A87AB87BC87C090A22411
:10052000D090A324E090A424F090A524A7019601E4
:1005300069817A818B819C810E942D04282E880FED
:1005400033082224330C221C3324A3E0B0E0A21988
:10055000B3091D012D813E814F81588569857A85BA
:100560008B859C850E9491032B013C0120E030E0AB
:10057000A9010E94F705181624F077FA709477F80D
:10058000709429813A814B815C81C701B6010E9438
:1005900091036B017C0120E030E0A9010E94F70586
:1005A000181624F0F7FAF094F7F8F094B501BB0CA4
:1005B000880B990B0E94E1044B015C01A30192019D
:1005C000C701B6010E9437040E94FE036D877E8733
:1005D0008F87988B0E9471069B01AC0160E070E0F0
:1005E00080E89FE30E943704A50194010E9404065D
:1005F0000E94A9046B8B7C8B8D8B9E8B6D857E8579
:100600008F8598890E9432049B01AC0160E070E004
:1006100080E89FE30E943704A50194010E9404062C
:100620000E94A9044B015C0120E030E040EA52E462
:10063000C301B2010E9404062B013C012D813E81C1
:100640004F81588569857A858B859C850E94F70541
:1006500018160CF051C0459AC301B2010E94A904BA
:1006600070939F2460939E2410926F009092890053
:1006700080928800B2E0B0936F0020E030E040EA62
:1006800052E4C701B6010E940406E2E02E163104CE
:10069000A9F5479A0E94A9047093A1246093A0240D
:1006A000109271008B899C89909399008093980097
:1006B00092E0909371008D819E81AF81B885809387
:1006C000A6249093A724A093A824B093A924898159
:1006D0009A81AB81BC818093A2249093A324A093A0
:1006E000A424B093A52480916F008111FCCF809148
:1006F00071008111F8CF04C04598AECF4798CACF9A
:10070000EF89F88D3896F88FEF8B0E171F0709F0D9
:10071000DCCEA0E0B0E0AB2B09F4CFCE0E9400000D
:10072000CCCE5058BB27AA270E94A9030C94A90538
:100730000E94700538F00E94770520F039F49F3F41
:1007400019F426F40C9446050EF4E095E7FB0C949E
:100750004005E92F0E94CE0558F3BA1762077307C8
:100760008407950720F079F4A6F50C94F0050EF4B3
:10077000E0950B2EBA2FA02D0B01B90190010C01B1
:10078000CA01A0011124FF27591B99F0593F50F4C9
:10079000503E68F11A16F040A22F232F342F442721
:1007A000585FF3CF469537952795A795F040539519
:1007B000C9F77EF41F16BA0B620B730B840BBAF0E9
:1007C0009150A1F0FF0FBB1F661F771F881FC2F754
:1007D0000EC0BA0F621F731F841F48F48795779568
:1007E0006795B795F7959E3F08F0B0CF9395880F22
:1007F00008F09927EE0F979587950895DF93DD27E9
:10080000B92FBF7740E85FE31616170648075B0766
:1008100018F4D92F0E94FC059F938F937F936F93B9
:100820000E947906ECE8F0E00E9449050E94A905C3
:100830002F913F914F915F910E941706DD2351F058
:100840009058A2EA2AED3FE049EC5FE3D0785D27BB
:100850000E94A903DF910C94A9050E941C0508F4CD
:1008600081E008950E948005E3950C94BA050E94EA
:100870004B040C94A9050E94770558F00E9470055E
:1008800040F029F45F3F29F00C94400551110C947D
:10089000F1050C9446050E94CE0568F39923B1F347
:1008A000552391F3951B550BBB27AA276217730796
:1008B000840738F09F5F5F4F220F331F441FAA1F2A
:1008C000A9F335D00E2E3AF0E0E832D091505040E6
:1008D000E695001CCAF72BD0FE2F29D0660F771F94
:1008E000881FBB1F261737074807AB07B0E809F07A
:1008F000BB0B802DBF01FF2793585F4F3AF09E3FFF
:10090000510578F00C9440050C94F1055F3FE4F339
:10091000983ED4F3869577956795B795F7959F5F41
:10092000C9F7880F911D9695879597F90895E1E08D
:10093000660F771F881FBB1F621773078407BA07EC
:1009400020F0621B730B840BBA0BEE1F88F7E09547
:1009500008950E94B0046894B1110C94F1050895B3
:100960000E94D60588F09F5798F0B92F9927B75164
:10097000B0F0E1F0660F771F881F991F1AF0BA9543
:10098000C9F714C0B13091F00E94F005B1E00895AC
:100990000C94F005672F782F8827B85F39F0B93F9E
:1009A000CCF3869577956795B395D9F73EF49095F6
:1009B0008095709561957F4F8F4F9F4F0895E89474
:1009C00009C097FB3EF490958095709561957F4F97
:1009D0008F4F9F4F9923A9F0F92F96E9BB27939545
:1009E000F695879577956795B795F111F8CFFAF455
:1009F000BB0F11F460FF1BC06F5F7F4F8F4F9F4F86
:100A000016C0882311F096E911C0772321F09EE8E3
:100A1000872F762F05C0662371F096E8862F70E049
:100A200060E02AF09A95660F771F881FDAF7880F23
:100A30009695879597F90895990F0008550FAA0B79
:100A4000E0E8FEEF16161706E807F907C0F01216E1
:100A50001306E407F50798F0621B730B840B950BE4
:100A600039F40A2661F0232B242B252B21F4089539
:100A70000A2609F4A140A6958FEF811D811D0895D6
:100A800097F99F6780E870E060E008959FEF80EC41
:100A90000895DF93CF931F930F93FF92EF92DF920E
:100AA0007B018C01689406C0DA2EEF010E941706C4
:100AB000FE01E894A5912591359145915591A6F3B4
:100AC000EF010E94A903FE019701A801DA9469F7DA
:100AD000DF90EF90FF900F911F91CF91DF910895DC
:100AE00000240A941616170618060906089500240D
:100AF0000A94121613061406050608950C9446056A
:100B00000E94D605D8F3E894E0E0BB279F57F0F0A9
:100B10002AED3FE049EC06C0EE0FBB0F661F771FC2
:100B2000881F28F0B23A62077307840728F0B25A88
:100B3000620B730B840BE3959A9572F7803830F44F
:100B40009A95BB0F661F771F881FD2F790480C94A9
:100B50007F06092E0394000C11F4882352F0BB0F7A
:100B600040F4BF2B11F460FF04C06F5F7F4F8F4FC5
:100B70009F4F0895EF93E0FF07C0A2EA2AED3FE000
:100B800049EC5FEB0E94A9030E94A9050F90039412
:100B900001FC9058E9EBF0E00C948B0657FD90585F
:100BA000440F551F59F05F3F71F04795880F97FB31
:100BB000991F61F09F3F79F08795089512161306EB
:100BC0001406551FF2CF4695F1DF08C0161617061A
:100BD0001806991FF1CF869571056105089408954F
:100BE000E894BB2766277727CB0197F908950E94E1
:100BF0001C0508F48FEF08959B01AC0160E070E0E4
:100C000080E89FE30C9437040E9417060C94A90512
:100C10000E94700538F00E94770520F0952311F0AE
:100C20000C9440050C94460511240C94F1050E9487
:100C3000CE0570F3959FC1F3950F50E0551F629F4D
:100C4000F001729FBB27F00DB11D639FAA27F00D25
:100C5000B11DAA1F649F6627B00DA11D661F829F4C
:100C60002227B00DA11D621F739FB00DA11D621F31
:100C7000839FA00D611D221F749F3327A00D611D4E
:100C8000231F849F600D211D822F762F6A2F112430
:100C90009F5750409AF0F1F088234AF0EE0FFF1F63
:100CA000BB1F661F771F881F91505040A9F79E3FBA
:100CB000510580F00C9440050C94F1055F3FE4F37E
:100CC000983ED4F3869577956795B795F795E79510
:100CD0009F5FC1F7FE2B880F911D9695879597F919
:100CE00008959F930E9480050F9007FCEE5F0C947F
:100CF000BA059B01AC010C9404069F3F31F0915062
:100D000020F4879577956795B795880F911D9695EF
:100D1000879597F908959F938F937F936F93FF9390
:100D2000EF939B01AC010E940406EF91FF910E949A
:100D300049052F913F914F915F910C940406F894CF
:020D4000FFCFE3
:100D420001013789844206C1A442D30D85421B6F3B
:100D5200A4428D9785426025A442DD2486425AE44E
:100D6200A34246B6864208ACA342444B87426A7C01
:100D7200A3424EE287428756A342647B8842DB3914
:100D8200A34287168942E926A3422DB289422F1D2A
:100D9200A342E92603432F1DA342BC740343E92661
:100DA200A3424EC20343DB39A342D90E0443875602
:100DB200A3425E5A04436A7CA342DDA4044308AC06
:100DC200A34291ED04435AE4A3423934054360251A
:100DD200A442177905431B6FA44264BB054306C1B5
:100DE200A442E1FA0543231BA542CF370643EE7C1A
:100DF200A5426871064366E6A542AEA706430456BD
:100E0200A6425EDA0643CDCCA642370907433749EC
:100E1200A7427B34074344CBA742645B0743EC51B0
:100E2200A842357E0743B2DDA8426A9C0743916D12
:100E3200A94287B607438300AA42C7CB07438796D6
:100E4200AA426ADC0743982EAB4273E80743B4C850
:100E5200AB429EEF07435A64AC42ECF107430000F9
:100E6200AD429EEF0743A69BAD4273E807434C3762
:100E7200AE426ADC074368D1AE42C7CB0743796909
:100E8200AF4287B607437DFFAF426A9C07436F922A
:100E9200B042357E07434E22B142645B074314AE33
:100EA200B1427B340743BC34B24237090743C9B667
:100EB200B2425EDA06433333B342FCA906435AA474
:100EC200B3429A3906438380B4423974CE42FA7EE1
:100ED200EA42C3F5CD425AE4EA42C976CD42773EB0
:100EE200EB422DF2CC42E590EB427368CC42A0DAA1
:100EF200EB4223DBCB42A61BEC42BA49CB42F8536E
:100F0200EC42BCB4CA429683EC42B21DCA4279A9F1
:100F1200EC429C84C94225C6EC4279E9C84217D901
:100F2200EC42D34DC842D1E2EC422DB2C742D1E2EB
:100F3200EC428716C74217D9EC42647BC64225C6EB
:100F4200EC424EE2C54279A9EC42444BC54296833B
:100F5200EC4246B6C442F853EC42DD24C442A61B1E
:100F6200EC428D97C342A0DAEB42D30DC342E59027
:100F7200EB423789C242773EEB42C10AC242DDE40C
:100F8200EA425879C1421B6FEA42CD8C8342838088
:100F9200B44208AC82425AA4B342444B8242333335
:100FA200B34291ED8142C9B6B2420A978142BC3442
:100FB200B2423749814214AEB142960381424E2277
:100FC200B1422BC780426F92B042F29280427DFFC3
:100FD200AF42736880427969AF422B47804268D141
:100FE200AE421B2F80424C37AE42C5208042A69BA8
:100FF200AD42291C80420000AD42C52080425A64A5
:10100200AC421B2F8042B4C8AB422B478042982E81
:10101200AB42736880428796AA42F2928042830072
:10102200AA422BC78042916DA94296038142B2DD4A
:10103200A84237498142EC51A8420A97814244CBE7
:10104200A74291ED81423749A742444B8242CDCC1F
:10105200A642A4B082420456A6422F1D834266E6EF
:10106200A54262908342717DA5423D0A8442231BC0
:10107200A542082C83423FF5A34271BD8342D38D22
:10108200A342815584429E2FA34233F3844223DB41
:10109200A242819585426290A242E73B8642DF4F9F
:1010A200A242E3E586421D1AA2427593874214EEDC
:1010B200A1421243884250CDA14239F488424CB732
:1010C200A142E9A689428BACA1428B2C03438BAC93
:1010D200A142E38503434CB7A14277DE034350CDDF
:1010E200A1424636044314EEA1420E8D04431D1A5A
:1010F200A2420CE20443DF4FA2423F350543629015
:10110200A2426686054323DBA2423FD505439E2FBA
:10111200A34248210643D38DA342FC6906433FF50F
:10112200A3429EAF0643DD64A442AAF10643B2DDA8
:10113200A442DF2F0743B25DA542FC69074360E585
:10114200A542BE9F07433974A64227D10743B4087C
:10115200A742F4FD0743D7A3A742A225084396431B
:10116200A84273480843F0E7A84225660843629004
:10117200A942B87E08436A3CAA42AA91084302EBFC
:10118200AA427D9F0843A69BAB42AEA70843504D9F
:10119200AC427FAA08430000AD42AEA70843B0B2FA
:1011A200AD427D9F08435A64AE42AA910843FE14A1
:1011B200AF42B87E084396C3AF42256608439E6F8E
:1011C200B042734808431018B142A22508436ABCD2
:1011D200B142F4FD0743295CB24227D107434CF7E1
:1011E200B242BE9F0743C78BB342FC690743A01AB2
:1011F200B442A430074342A0B442C9B606435C8F4E
:10120200B542C560CF429A99EB42F8D3CE42C10AA9
:10121200EC428F42CE422D72EC427FAACD4262D086
:10122200EC42CD0CCD42DD24ED427F6ACC429E6F72
:10123200ED4219C4CB4221B0ED421D1ACB42E3E587
:10124200ED428B6CCA42EC11EE42EEBCC942B032A6
:10125200EE42C70BC942B448EE421759C842755311
:10126200EE42E9A6C7427553EE4239F4C642B4488B
:10127200EE421243C642B032EE427593C542EC11C1
:10128200EE42E3E5C442E3E5ED42E73BC44221B06E
:10129200ED428195C3429E6FED4233F3C242DD249B
:1012A200ED428155C24262D0EC4271BDC1422D7203
:1012B200EC42082CC142440BEC424A8CC042BA892F
:1012C200EB426F9282425C8FB542B89E814242A04D
:1012D200B442082C8142A01AB44283C08042C78B18
:1012E200B342B25D80424CF7B24219048042295C9B
:1012F200B24279697F426ABCB14235DE7E42101841
:10130200B1426D677E429E6FB0421F057E4296C318
:10131200AF4258B97D42FE14AF420C827D425A64FC
:10132200AE4248617D42B0B2AD4204567D420000F9
:10133200AD4248617D42504DAC420C827D42A69B3B
:10134200AB4258B97D4202EBAA421F057E426A3C7B
:10135200AA426D677E426290A94235DE7E42F0E784
:10136200A84279697F429643A84219048042D7A3D2
:10137200A742B25D8042B408A74283C0804239745A
:10138200A642082C814260E5A54242A08142B25D9C
:10139200A542AC1C8242B2DDA442C5A08242DD64F9
:1013A200A442082C83423FF5A342A69B8842AC5C30
:1013B200AA42F2128842EC11AB42AAB18742FED491
:1013C200AB4246768742E9A6AC42CB6187420080B7
:1013D200AD42467687421759AE42AAB18742022BE6
:1013E200AF42F212884214EEAF42A69B884254A347
:1013F200B042856B89428155B14233338A4283C000
:10140200B14212038B428F02B242C1CA8B42A61B67
:10141200B242A01A0243A61BB242777E02438F0257
:10142200B24266E6024383C0B142664603439A591A
:10143200B142649B034362D0B0424EE20343022BAB
:10144200B042D5180443146EAF422F3D044342A06C
:10145200AE42D34D0443B4C8AD427F4A044398EE32
:10146200AC422D3204436811AC4217F9034393187E
:10147200AB42BCB40343D763AA4219640343E5D029
:10148200A9426D070343B25DA942CBA10243D90E23
:10149200A942FA3E0243FCE9A8422D1202435AE451
:1014A200A842C1CA8B425AE4A84212038B4271FD80
:1014B200A84233338A427D3FA942856B89427FAA83
:1014C200A942A69B8842AC5CAA42FCA98942A05AC6
:1014D200AB42D34D89427BD4AB42C10A8942A05A66
:1014E200AC42CBE1884202EBAC42F8D388420080A6
:1014F200AD42CBE18842FE14AE42C10A894260A5E8
:10150200AE42D34D8942852BAF42FCA9894260A5E8
:10151200AF42EE3C8A425423B04296C38A42856B64
:10152200B0426F528B421799B04248E18B4202ABF4
:10153200B0425C0F024302ABB042C9560243179954
:10154200B042359E0243856BB04242E00243DD2445
:10155200B042A01A0343A8C6AF42444B0343FE5411
:10156200AF42A470034375D3AE42BA890343254602
:10157200AE423F9503432DB2AD42F2920343291C82
:10158200AD428F8203432B87AC421D5A03430AD7D5
:10159200AB42082C03432F5DAB42BCF4024352F82A
:1015A200AA42FEB4024379A9AA421B6F02433373D3
:1015B200AA42312802439358AA428B0C0243FE549A
:1015C200AA4248E18B42FE54AA426F528B42E9661C
:1015D200AA4296C38A427B94AA42EE3C8A42ACDC7F
:1015E200AA42FCA98942A05AAB42D34DBA421F85F6
:1015F200C942D9CEB942C560CA42B25DB9421944A4
:10160200CB425EFAB842142ECC42E3A5B842B21DD8
:10161200CD42C560B842EC11CE427F2AB8423D0AA3
:10162200CF421203B8421F05D04208ECB7420C0267
:10163200D142D7E3B7420000D24208ECB742F4FDF0
:10164200D2421203B842E1FAD3427F2AB842C3F52A
:10165200D442C560B84214EED542E3A5B8424EE288
:10166200D6425EFAB842ECD1D742B25DB942E7BB8C
:10167200D842D9CEB9423B9FD942D34DBA42E17A40
:10168200DA421DDABA42D94EDB423373BB429A19AF
:10169200DC429318BC421DDADC4237C9BC42E590F9
:1016A200DD421F85BD42E73BDE42C14ABE4223DB2B
:1016B200DE421D1ABF42916DDF422DF2BF4233F36B
:1016C200DF42ECD1C042856BE04252B8C14204D63F
:1016D200E04260A5C242AA31E1428D97C342777EC1
:1016E200E142D38DC4426ABCE142AE87C54202EBFD
:1016F200E1429683C6423D0AE2420681C7421D1A72
:10170200E242FA7EC8421D1AE2426A7CC9423D0A9E
:10171200E2425278CA4202EBE1422D72CB426ABCEB
:10172200E1427368CC42777EE142A05ACD42AA31AF
:10173200E142AE47CE4204D6E042142ECF42856B40
:10174200E042D30DD04233F3DF42E3E5D042916D64
:10175200DF423FB5D14223DBDE42E17AD242E73BB0
:10176200DE42C936D342E590DD426DE7D3421DDA4F
:10177200DC42CD8CD4429A19DC42E325D542D94EC3
:10178200DB422DB2D542E17ADA422731D6423B9F83
:10179200D9424EA2D642E7BBD842A205D742ECD1EB
:1017A200D7421D5AD7424EE2D6423B9FD74214EE51
:1017B200D54281D5D742C3F5D442EEFCD742E1FAF5
:1017C200D342F813D842F4FDD242291CD842000079
:1017D200D242F813D8420C02D142EEFCD7421F0586
:1017E200D04281D5D7423D0ACF423B9FD742EC112E
:1017F200CE421D5AD742B21DCD42A205D742142E67
:10180200CC424EA2D6421944CB422731D642C560C1
:10181200CA422DB2D5421F85C942E325D54227B11E
:10182200C842CD8CD44266E6C7426DE7D342E32577
:10183200C742C936D3421B6FC642E17AD24219C4AB
:10184200C5423FB5D142DD24C542E3E5D0426F92A5
:10185200C442D30DD042CD0CC442142ECF427B944D
:10186200C342AE47CE42FC29C342A05ACD4256CE15
:10187200C2427368CC428981C2422D72CB429643E6
:10188200C2425278CA42FE14C2426A7CC942C3F5BD
:10189200C142FA7EC842E3E5C1420681C742E3E59E
:1018A200C1429683C642C3F5C142AE87C542FE1409
:1018B200C242D38DC4429643C2428D97C3428981AC
:1018C200C24260A5C24256CEC24252B8C142FC29AF
:1018D200C342ECD1C0427B94C3422DF2BF42CD0C35
:1018E200C4421D1ABF426F92C442C14ABE42DD24A5
:1018F200C5421F85BD4219C4C54237C9BC421B6FD0
:10190200C6429318BC42E325C7423373BB4266E624
:10191200C7421DDABA4227B1C842D34DBA421F8527
:10192200C9422B87BB422B47CA427513BB425C0F8D
:10193200CB428BACBA42B8DECB426F52BA42B6B39C
:10194200CC42A205BA42D38DCD4225C6B942086C1B
:10195200CE42FE94B942D34DCF422771B942B03242
:10196200D042295CB9429318D142FE54B9420000D8
:10197200D242295CB942E9E6D2422771B94250CD3E
:10198200D342FE94B9422DB2D44225C6B942F8934D
:10199200D542A205BA422D72D6426F52BA424A4C81
:1019A200D7428BACBA424821D8427513BB42A4F04D
:1019B200D8422B87BB42D5B8D9422B07BC42DB7930
:1019C200DA426F92BC422D32DB42F628BD42CBE1B5
:1019D200DB42BAC9BD42AE87DC42BC74BE42D723E9
:1019E200DD42F628BF42BCB4DD42E3E5BF425E3AC7
:1019F200DE427FAAC04239B4DE424676C142482165
:101A0200DF423148C2420C82DF42BE1FC34281D54F
:101A1200DF426AFCC342A61BE042ACDCC442F8537C
:101A2200E04200C0C542777EE04260A5C642239BE9
:101A3200E0424A8CC74279A9E042B673C84279A90A
:101A4200E042A05AC942239BE0420040CA42777E4C
:101A5200E0425423CB42F853E0429603CC42A61B09
:101A6200E04242E0CC4281D5DF42CFB7CD420C8288
:101A7200DF42BA89CE424821DF428155CF4239B492
:101A8200DE421D1AD0425E3ADE420AD7D042BCB4D0
:101A9200DD42448BD142D723DD424636D242AE8765
:101AA200DC420AD7D242CBE1DB42916DD3422D32E6
:101AB200DB42D5F8D342DB79DA42D578D442D5B8C5
:101AC200D9428BECD442A4F0D8427553D542482176
:101AD200D84291ADD5424A4CD7425EFAD5422D72D8
:101AE200D642DB39D642F893D542026BD6422DB2AA
:101AF200D442D98ED64250CDD342D7A3D642E9E6BC
:101B0200D24202ABD6420000D242D7A3D6429318A9
:101B1200D142D98ED642B032D042026BD642D34D98
:101B2200CF42DB39D642086CCE425EFAD542D38D23
:101B3200CD4291ADD542B6B3CC427553D542B8DE53
:101B4200CB428BECD4425C0FCB42D578D4422B47AC
:101B5200CA42D5F8D3422586C942916DD342D3CD2C
:101B6200C8420AD7D242351EC8424636D2425278BD
:101B7200C742448BD14229DCC6420AD7D042444BE9
:101B8200C6421D1AD042A2C5C5428155CF42C74B9B
:101B9200C542BA89CE42B8DEC442CFB7CD42F47D47
:101BA200C44242E0CC427F2AC4429603CC425AE469
:101BB200C3425423CB4208ACC3420040CA4206810E
:101BC200C342A05AC942DD64C342B673C8428756B3
:101BD200C3424A8CC7428756C34260A5C642DD64EF
:101BE200C34200C0C5420681C342ACDCC44208AC59
:101BF200C3426AFCC3425AE4C342BE1FC3427F2AA5
:101C0200C4423148C242F47DC4424676C142B8DE83
:101C1200C4427FAAC042C74BC542E3E5BF42A2C548
:101C2200C542F628BF42444BC642BC74BE4229DCC0
:101C3200C642BAC9BD425278C742F628BD42351ED5
:101C4200C8426F92BC42D3CDC8422B07BC42258604
:101C5200C9422B87BB422B47CA424C77C1424A0C2E
:101C6200E242F6A8CA42773EEB4248E1CA428B2CD6
:101C7200EB42C560CB42E1FAEA42ACDCCB420CC299
:101C8200EA420A17CC42D1A2EA427368C44239F44A
:101C9200E2428D57C542C520E3426666C6428F4284
:101CA200E342A2C5C6423148E342F252CD4281D557
:101CB200E94202ABCD42D98EE9428B6CCE42E3E5DA
:101CC200E84281D5C842D94EE3429A99C9428F422D
:101CD200E34273A8CA42C520E3429EAFCA42BE1F76
:101CE200E3421283CF4233F3E7421D9AD04283008C
:101CF200E742B25DCC429CC4E24277BECC4208AC21
:101D0200E24212C3CD421759E24208ECCD423749B2
:101D1200E242A4B0D142D30DE6422BC7D242231BEA
:101D2200E542A65BCF429EAFE142DBB9CF421984C6
:101D3200E1427FAAD0421203E14233B3D042F4FD22
:101D4200E042B2DDD3427328E442BCF4D442C3354C
:101D5200E34221F0D1422731E0422D72D242FED439
:101D6200DF421018D342DF4FDF42440BD642124308
:101D7200E242CB21D7426250E1427929D4429358C0
:101D8200DE425CCFD44291ADDD42DD24D542BA4978
:101D9200DD425238D842B25DE0425C4FD942026B1A
:101DA200DF42440BD6426D27DC42E325D6421904BA
:101DB200DC42EEBCD6424220DB421DDAD6420EEDB8
:101DC200DA42E365DA425278DE426A7CDB42A2857D
:101DD200DD426891D742A09AD9427DBFD742773E71
:101DE200D942FC29D8421243D8422130D84221306C
:101DF200D842F292DC42F292DC42FCA9DD4242A0DD
:101E0200DB42A4B0D842E9A6D6425CCFD8425E3AC1
:101E1200D642BA09D9429E2FD5426811D942FAFE5A
:101E2200D44283C0DE4291ADDA420AD7DF42E1BA40
:101E3200D9423D4AD942982ED342CD4CD94268115B
:101E4200D3428155D9420000D242D94ED942792992
:101E5200D14291EDE04231C8D8421904E24281D523
:101E6200D742C70BD9422FDDCE42BA09D94262D03E
:101E7200CE425CCFD842A2C5CD429C84D842FABEA3
:101E8200CC42A846D842560ECC42231BE342D1E2B2
:101E9200D642AA31E44221F0D542ACDCD542A69B1F
:101EA200C7421FE504436626AE42A8A6064379A9A7
:101EB200B142798906438901B242426006431B6FEF
:101EC200B2428D370643D3CDB24204360643E5D043
:101ED200B242DFAF04439CC4AF42F0A70443AAF16D
:101EE200AF42D1620443C5E0B0429E4F0443D30DDA
:101EF200B14262B005435CCFB3421F2505430CC219
:101F0200B44250CD03436F12B242719D0343BE5F90
:101F1200B242082C03439AD9B242DB990443BCB4BF
:101F2200B542980E04436DA7B642F45D0243A8463B
:101F3200B3425A240243FE54B34283600143FE5427
:101F4200B342128303431D9AB742CFF70243CD8CAB
:101F5200B842A65B0043FE54B34214AEFE42FE54A6
:101F6200B3428B6C02437D7FB94248E101432D723B
:101F7200BA42DDA4FC42FE54B342A69BFA42FE548E
:101F8200B34204560143DD64BB427FCA00438D570E
:101F9200BC42EC91F842FE54B342B488F642FE547D
:101FA200B3423B3F00433D4ABD42F067FF42EE3C35
:101FB200BE427D7FF442FE54B3424676F242FE5464
:101FC200B3426851FE429E2FBF425E3AFD424E220C
:101FD200C0420E6DF042FE54B3425463EE42FE54D0
:101FE200B342D723FC42FE14C142500DFB42AE075E
:101FF200C2421D5AEC42FE54B342E550EA42FE543C
:10200200B342C9F6F9425EFAC242BEDFF8420EEDB1
:10201200C342AE47E842FE54B342F43DE642FE54A8
:10202200B34237C9F742BEDFC442B0B2F6426FD202
:10203200C542BC34E442FE54B342852BE242FE5414
:10204200B342299CF5421FC5C6421F85F442CFB751
:10205200C7424E22E042FE54B3429318DE42FE547F
:10206200B342986EF3427FAAC8421058F2422F9DA3
:10207200C9425C0FDC42FE54B3422506DA42FE54EA
:10208200B3428941F142DF8FCA42022BF0428F8272
:10209200CB42EEFCD742FE54B342B6F3D542FE54D5
:1020A200B342F813EF423F75CC4271FDED42F06747
:1020B200CD42FCE9D342FE54B342C5E0D142FE54C4
:1020C200B342E9E6EC42A05ACE4262D0EB42504D16
:1020D200CF428DD7CF42FE54B34256CECD42FE54AC
:1020E200B34258B9EA420040D042D1A2E942B032EA
:1020F200D1429CC4CB42FE54B34264BBC942FE549B
:10210200B3424A8CE8426025D242C375E7421018B6
:10211200D3422DB2C742FE54B342F6A8C542FE5482
:10212200B342B85EE642C10AD4423148E54271FD8B
:10213200D4423B9FC342FE54B3420496C142FE5472
:10214200B342B25DD242291CC442F292D142CD8C3A
:10215200C3427FAAD042EEFCC242DBB9CF42E77B48
:10216200C24289C1CE42BA09C242A4F0CD4252B89B
:10217200C142CD8CBF42FE54B3429683BD42FE544F
:10218200B342DD24CB4246F6C04273A8CA423BDFCB
:10219200C0429A99C94271BDC0420AD7C842AAB187
:1021A200C042DB79BB42FE54B342A470B942FE5432
:1021B200B342F2D2C642C9B6C0426666C64271BDD9
:1021C200C0428D57C5423BDFC0428901C5421BEF69
:1021D200C0426D67B742FE54B342355EB542FE540B
:1021E200B3428D57C342564EC1428941C342F8534E
:1021F200C142EE3CC242E9A6C142E5D0C142E5D0AD
:10220200C142FE54B342FE54B342444BB142FE5467
:10221200B3425A64C042916DC2422546C042E77B36
:10222200C2428155BF42EEFCC2427513BF42E32552
:10223200C3420C42AF42FE54B342D538AD42FE54C3
:10224200B3429AD9BD423FF5C342D38DBD42022B60
:10225200C442D5B8BC4204D6C442BCB4BC421DDAA6
:10226200C4429E2FAB42FE54B342E325A942FE5420
:10227200B34273A8BB420AD7C542A430BB426F52D5
:10228200C64221B0BA4273E8C642AC1CA742FE5411
:10229200B3427513A542FE54B342D3CDB942D90E0F
:1022A200C8421243B942BEDFC8429603B942564EF3
:1022B200C9423D0AA342FE54B3428300A142FE54E6
:1022C200B3425C4FB84254A3CA428340B84289C168
:1022D200CA4204D6B742EEBCCB424CB7B7427B14DB
:1022E200CC424CF79E42FE54B34214EE9C42FE5442
:1022F200B342E13AB74248A1CD42A430B742A2C5A7
:10230200CD4246F6B64262D0CE42CBE1B642EC5165
:10231200CF42DDE49A42FE54B342A6DB9842FE5419
:10232200B34227B1B6427F2AD1427FAAB642000009
:10233200D24233B3B6426811D342C9B6B642583913
:10234200D342ECD19642FE54B342B4C89442FE54F6
:10235200B342500DB7421799D542A430B7425E3A04
:10236200D642647BB7420641D74204D6B7421243F3
:10237200D842B6F3B7423789D8427DBF9242FE5463
:10238200B34246B69042FE54B3426AFCC842239B13
:10239200EB42CDCCC84248A1EB421944C84279A9CC
:1023A200EB42E7BBC74279A9EB423333C74248A1AC
:1023B200EB42A4F0C6421799EB428BAC8E42FE541C
:1023C200B34254A38C42FE54B342E1FAC3428BACF3
:1023D200EA4202ABC3428981EA42C936C342583952
:1023E200EA4231C8C24202EBE9428F42C242FA7E5D
:1023F200E94221B0B642026BDF42A65B8A42041672
:10240200B3420A578742142EB642898182429358B8
:10241200B142B25D82429A19B142C52082423B9FCB
:10242200B04202EB81424821B042F4BD8142C5A0D4
:10243200AF42939881422F1DAF42647B81428D97B8
:10244200AE428B6C8142DB39AE42BE1F97420EED2B
:10245200C342F0E7A64208ACD142486181426025FE
:10246200AC42666681429EEFAB42647B81427368F6
:10247200AB4293988142D1E2AA4252B8814233736D
:10248200AA42FC698642DD24AF4283408642F29230
:10249200AE426D2786420080AD423F358642E9E674
:1024A200AC42DF4F82428901A942B25D824266E6B6
:1024B200A842CBA182422170A8420EED824277FE51
:1024C200A742A01A83428FC2A742299C864219447E
:1024D200AB42AE078742086CAA42AC5C874264FBFF
:1024E200A9426811844221B0A642AC5C8442856B49
:1024F200A6422BC784428115A64233338542B4C813
:10250200A542B85E884239F4A84258B98842E9A681
:10251200A8423B9F8942022BA8421F858642E510B2
:10252200A5423B9F86421F05A542B81E874275D32E
:10253200A442C5A08742FCA9A4424A0C88425C8FEF
:10254200A44252388B42E1BAA7424CB78B4202AB4B
:10255200A742AA318D4202ABA7422FDD894287569C
:10256200A44266E68B428756A442643B8F4202AB8A
:10257200A7429C44914202ABA7429EEF8D428756EE
:10258200A44258F98F428756A442D34D934202ABDC
:10259200A7420A57954202ABA7428F029242875640
:1025A200A442C70B94428756A442C560974202AB2D
:1025B200A742FC69994202ABA742FE149642875693
:1025C200A442B81E98428756A44233739B4202AB80
:1025D200A7426A7C9D4202ABA742F0279A428756E5
:1025E200A44227319C428756A44225869F4202ABD1
:1025F200A7425C8FA14202ABA7425E3A9E42875637
:10260200A4421944A0428756A4429398A34202AB23
:10261200A742CBA1A54202ABA742504DA242875688
:10262200A4428756A4428756A44202ABA74202ABF9
:10263200A742BCB4A94202ABA742BE5FA6428756DC
:10264200A442F668A8428756A442F4BDAB4202AB4C
:10265200A7422BC7AD4202ABA742B072AA4287562D
:10266200A442E77BAC428756A44262D0AF4202AB9F
:10267200A7421DDAB14202ABA7421F85AE4287567E
:10268200A442568EB0428756A44254E3B34202ABF0
:10269200A7428BECB54202ABA7421098B2428756D2
:1026A200A44248A1B4428756A442C3F5B74202AB42
:1026B200A7427DFFB94202ABA7427FAAB642875624
:1026C200A442B6B3B8428756A442B408BC4202AB95
:1026D200A742EC11BE4202ABA74271BDBA42875675
:1026E200A442A8C6BC428756A442231BC04202ABE6
:1026F200A742DD24C24202ABA742DFCFBE428756C9
:10270200A44217D9C0428756A442142EC44202AB37
:10271200A7424C37C64202ABA7424EE2C24287569C
:10272200A44208ECC4428756A4428340C84202AB8A
:10273200A742BA49CA4202ABA7423FF5C6428756F0
:10274200A44277FEC8428756A4427553CC4202ABDC
:10275200A742AC5CCE4202ABA742AE07CB42875641
:10276200A4426811CD428756A442E365D04202AB2F
:10277200A7421B6FD24202ABA742A01ACF42875692
:10278200A442D723D1428756A442D578D44202AB81
:10279200A7420C82D64202ABA7420E2DD3428756E5
:1027A200A442C936D5428756A442448BD84202ABD2
:1027B200A7427B94DA4202ABA7420040D742875637
:1027C200A4423749D9428756A442359EDC4202AB25
:1027D200A7426DA7DE4202ABA7426F52DB42875689
:1027E200A442295CDD428756A442A4B0E04202AB77
:1027F200A742DBB9E24202ABA7426065DF428756DD
:10280200A442986EE1428756A44212C3E44202AB4C
:10281200A742CDCCE64202ABA742CF77E34287562E
:10282200A4420681E5428756A44204D6E84202AB9E
:10283200A7423BDFEA4202ABA742C18AE742875680
:10284200A442F893E9428756A44273E8EC4202ABF1
:10285200A7422DF2EE4202ABA7422F9DEB428756D2
:10286200A44266A6ED428756A44264FBF04202AB44
:10287200A7429C04F34202ABA74221B0EF42875623
:10288200A44258B9F1428756A442D30DF54202AB95
:10289200A7428D17F74202ABA7428FC2F342875677
:1028A200A442C7CBF5428756A442C520F94202ABE7
:1028B200A742FC29FB4202ABA74281D5F7428756C9
:1028C200A442B8DEF9428756A4423333FD4202AB3A
:1028D200A742EE3CFF4202ABA742F0E7FB4287561B
:1028E200A44227F1FD428756A44212A3004302AB41
:1028F200A742AEA7014302ABA7425EFAFF42875648
:10290200A4420C0201438756A442A2C50243B2DD8F
:10291200A742CDCC024342E0A742914D0343194462
:10292200A84212C3034381D5A842F6280443DF8F8D
:10293200A94242800443C976AA42AEC704430EADFF
:10294200AB421BCF0443A4F0AB42000007436F52DB
:10295200B0423D0A07434821B0420621074342A044
:10296200AF42B63307432F1DAF42713D074319C42F
:10297200AE42A80602438756A442440B034387563D
:10298200A442FE540743FCE9AC42335307434C775D
:10299200AC42CD4C07439EEFAB424E4207437368B5
:1029A200AB42B6330743D1E2AA42252607438F82C0
:1029B200AA42773E0443B6B3A4429B029B029B0207
:1029C2009B029B029B029B029B029B029B029B021D
:1029D2009B029B029B029B029B029B029B029B020D
:1029E2009B029B029B029B029B029B029B029B02FD
:1029F2009B029B029B029B029B029B029B029B02ED
:102A02009B029B029B029B029B029B029B029B02DC
:102A12009B029B029B029B029B029B029B029B02CC
:102A22009B029B029B029B029B029B029B029B02BC
:102A32009B029B029B029B029B029B029B029B02AC
:102A42009B029B029B029B029B029B029B029B029C
:102A52009B029B029B029B029B029B029B029B028C
:102A62009B029B029B029B029B029B029B029B027C
:102A72009B029B029B029B029B029B029B029B026C
:102A82009B029B029B029C00E803E803E803E80325
:102A9200E803E803E803E803E803E803E803E803DC
:102AA200E803E803E803E803E803E803E803E803CC
:102AB200E803E803E803E803E803E803E803E803BC
:102AC200E803E803E803E803E803E803E803E803AC
:102AD200E803E803E803E803E803E803E803E8039C
:102AE200E803E803E803E803E803E803E803E8038C
:102AF200E803E803E803E803E803E803E803E8037C
:102B0200E803E803E803E803E803E803E803E8036B
:102B1200E803E803E803E803E803E803E803E8035B
:102B2200E803E803E803E803E803E803E803E8034B
:102B3200E803E803E803E803E803E803E803E8033B
:102B4200E803E803E803E803E803E803E803E8032B
:102B5200E803E8039C009B029B029B029B029B02F0
:102B62009B029B029B029B029B029B029B029B027B
:102B72009B029B029B029B029B029B029B029B026B
:102B82009B029B029B029B029B029B029B029B025B
:102B92009B029B029B029B029B029B029C00E803FE
:102BA200E803E803E803E803E803E803E803E803CB
:102BB200E803E803E803E803E803E803E803E803BB
:102BC200E803E803E803E803E803E803E803E803AB
:102BD200E803E803E803E803E803E803E803E8039B
:102BE200E803E8039C009B029B029B029B029B0260
:102BF2009B029B029B029B029B029B029B029B02EB
:102C02009B029B029B029B029B029B029B029B02DA
:102C12009B029B029B029B029B029B029B029B02CA
:102C22009B029B029B029B029B029B029B029B02BA
:102C32009B029B029B029B029B029B029B029B02AA
:102C42009B029B029B029B029B029B029B029B029A
:102C52009B029B029B029B029B029B029B029B028A
:102C62009B029B029B029B029B029B029B029B027A
:102C72009B029B029B029B029B029B029B029B026A
:102C82009B029B029B029B029B029B029B029B025A
:102C92009B029B029B029B029B029B029B029B024A
:102CA2009B029B029B029B029B029B029B029B023A
:102CB2009B029C00E803E803E803E803E803E80357
:102CC200E803E803E803E803E803E803E803E803AA
:102CD200E803E803E803E803E803E803E803E8039A
:102CE200E803E803E803E803E803E803E803E8038A
:102CF200E803E803E803E803E803E803E803E8037A
:102D0200E803E803E803E803E803E803E803E80369
:102D1200E803E803E803E803E803E803E803E80359
:102D2200E803E803E803E803E803E803E803E80349
:102D3200E803E803E803E803E803E803E803E80339
:102D4200E803E803E803E803E803E803E803E80329
:102D5200E803E803E803E803E803E803E803E80319
:102D6200E803E803E803E803E803E803E803E80309
:102D7200E803E803E803E803E803E803E803E803F9
:102D82009C00710271027102710271027102710280
:102D92007102710271027102710271027102710299
:102DA2007102710271027102710271027102710289
:102DB2007102710271027102710271027102710279
:102DC2007102710271027102710271027102710269
:102DD2007102710271027102710271027102710259
:102DE2007102710271027102710271027102710249
:102DF2007102710271027102710271027102710239
:102E02007102710271027102710271027102710228
:102E120071029C00710271027102710271027102EF
:102E22007102710271027102710271027102710208
:102E320071027102710271027102710271027102F8
:102E420071027102710271027102710271027102E8
:102E520071027102710271027102710271027102D8
:102E620071027102710271027102710271027102C8
:102E720071027102710271027102710271027102B8
:102E820071027102710271027102710271027102A8
:102E92007102710271027102710271027102710298
:102EA2007102710271027102710271027102710288
:102EB2007102710271027102710271027102710278
:102EC2007102710271027102710271027102710268
:102ED2007102710271027102710271027102710258
:102EE2007102710271027102710271027102710248
:102EF2007102710271027102710271027102710238
:102F02007102710271027102710271027102710227
:102F12007102710271027102710271027102710217
:102F22007102710271027102710271027102710207
:102F320071027102710271027102710271027102F7
:102F420071027102710271027102710271027102E7
:102F520071027102710271027102710271027102D7
:102F6200710271027102710271029C00710271029E
:102F720071027102710271027102710271027102B7
:102F820071027102710271027102710271027102A7
:102F92007102710271027102710271027102710297
:102FA2007102710271027102710271027102710287
:102FB2007102710271027102710271027102710277
:102FC2007102710271027102710271027102710267
:102FD2007102710271027102710271027102710257
:102FE2007102710271027102710271027102710247
:102FF2007102710271027102710271027102710237
:103002007102710271027102710271027102710226
:103012007102710271027102710271027102710216
:103022007102710271027102710271027102710206
:1030320071027102710271027102710271027102F6
:1030420071027102710271027102710271027102E6
:1030520071027102710271027102710271027102D6
:1030620071027102710271027102710271027102C6
:1030720071027102710271027102710271027102B6
:1030820071027102710271027102710271027102A6
:103092007102710271027102710271027102710296
:1030A2007102710271027102710271027102710286
:1030B2007102710271027102710271027102710276
:1030C2007102710271027102710271027102710266
:0830D20071027102710271022A
:020000021000EC
:10FC00001F92CDB7DEB7112484B714BE81FFDED0BA
:10FC100085E08093810082E08093C00088E180933A
:10FC2000C10086E08093C20080E18093C4008EE032
:10FC3000B8D0209A26E080E39CEF31E090938500D5
:10FC40008093840036BBB09BFECF189AA8952150B4
:10FC5000A9F7A12CB12CEE24E39491E1D92E23E055
:10FC6000F22E93D0813469F490D08983A0D0898119
:10FC7000823809F424C0813809F476C083E07ED04C
:10FC80007AC0823411F484E103C0853419F485E02C
:10FC900096D071C0853579F478D0182F76D0212F81
:10FCA00030E0382B832F881F8827881F8BBF59018E
:10FCB000AA0CBB1C5FC0863521F484E080D080E0B4
:10FCC000DECF843609F03BC060D05FD0C82E5DD057
:10FCD000A11480EEB80618F4F501F7BEE89500E02F
:10FCE00011E053D0F80181938F01CE12FACFA11405
:10FCF000F0EEBF0618F0F501F7BEE89558D007B64C
:10FD000000FCFDCFF501A0E0B1E08C9111962C91A3
:10FD1000119790E0922B12960C01E7BEE895112402
:10FD20003296A11582E0B80781F785E0F50187BF1B
:10FD3000E89507B600FCFDCFD7BEE8951CC0843718
:10FD400061F423D022D0182F20D031D0F501879133
:10FD50005F0114D01150D1F70EC0853739F427D088
:10FD60008EE10CD087E90AD085E089CF813511F486
:10FD700088E017D01CD080E101D073CF9091C000F3
:10FD800095FFFCCF8093C60008958091C00087FF47
:10FD9000FCCF8091C00084FD01C0A8958091C60071
:10FDA0000895E0E6F0E098E1908380830895EDDF28
:10FDB000803219F088E0F5DFFFCF84E1DFCFCF9309
:10FDC000C82FE3DFC150E9F7CF91F1CF282E80E0B3
:08FDD000E8DFEE27FF2709948C
:02FFFE000005FC
:040000031000FC00ED
:00000001FF